{
  "_format": "hh-sol-artifact-1",
  "contractName": "VeilXEcosys",
  "sourceName": "contracts/VeilXEcosys.sol",
  "abi": [
    {
      "inputs": [],
      "stateMutability": "payable",
      "type": "constructor"
    },
    {
      "anonymous": false,
      "inputs": [
        {
          "indexed": false,
          "internalType": "address",
          "name": "sender",
          "type": "address"
        },
        {
          "indexed": false,
          "internalType": "uint256",
          "name": "amount",
          "type": "uint256"
        }
      ],
      "name": "FundsReceived",
      "type": "event"
    },
    {
      "anonymous": false,
      "inputs": [
        {
          "indexed": false,
          "internalType": "address",
          "name": "recipient",
          "type": "address"
        },
        {
          "indexed": false,
          "internalType": "uint256",
          "name": "amount",
          "type": "uint256"
        }
      ],
      "name": "RewardDistributed",
      "type": "event"
    },
    {
      "inputs": [],
      "name": "buyData",
      "outputs": [],
      "stateMutability": "payable",
      "type": "function"
    },
    {
      "inputs": [
        {
          "internalType": "address payable",
          "name": "recipient",
          "type": "address"
        },
        {
          "internalType": "uint256",
          "name": "amount",
          "type": "uint256"
        }
      ],
      "name": "distributeReward",
      "outputs": [],
      "stateMutability": "nonpayable",
      "type": "function"
    },
    {
      "inputs": [],
      "name": "getBalance",
      "outputs": [
        {
          "internalType": "uint256",
          "name": "",
          "type": "uint256"
        }
      ],
      "stateMutability": "view",
      "type": "function"
    },
    {
      "inputs": [],
      "name": "owner",
      "outputs": [
        {
          "internalType": "address",
          "name": "",
          "type": "address"
        }
      ],
      "stateMutability": "view",
      "type": "function"
    },
    {
      "stateMutability": "payable",
      "type": "receive"
    }
  ],
  "bytecode": "0x6080604052600080546001600160a01b031916331790556102d3806100256000396000f3fe6080604052600436106100435760003560e01c806312065fe0146100875780631ec8bb8c146100a7578063749bb234146100c95780638da5cb5b146100d157600080fd5b3661008257604080513381523460208201527f8e47b87b0ef542cdfa1659c551d88bad38aa7f452d2bbb349ab7530dfec8be8f910160405180910390a1005b600080fd5b34801561009357600080fd5b506040514781526020015b60405180910390f35b3480156100b357600080fd5b506100c76100c2366004610265565b610109565b005b6100c76101db565b3480156100dd57600080fd5b506000546100f1906001600160a01b031681565b6040516001600160a01b03909116815260200161009e565b8047101561015e5760405162461bcd60e51b815260206004820152601c60248201527f4e6f7420656e6f7567682066756e647320696e20636f6e74726163740000000060448201526064015b60405180910390fd5b6040516001600160a01b0383169082156108fc029083906000818181858888f19350505050158015610194573d6000803e3d6000fd5b50604080516001600160a01b0384168152602081018390527fe34918ff1c7084970068b53fd71ad6d8b04e9f15d3886cbf006443e6cdc52ea6910160405180910390a15050565b6000341161022b5760405162461bcd60e51b815260206004820152601860248201527f53656e6420736f6d652045544820746f206465706f73697400000000000000006044820152606401610155565b604080513381523460208201527f8e47b87b0ef542cdfa1659c551d88bad38aa7f452d2bbb349ab7530dfec8be8f910160405180910390a1565b6000806040838503121561027857600080fd5b82356001600160a01b038116811461028f57600080fd5b94602093909301359350505056fea264697066735822122066f91b52102272103e4b11a4ee729383158f6985d89cf921ffc30037822dc35564736f6c63430008110033",
  "linkReferences": {},
  "deployedLinkReferences": {}
}